S012000066696E616C5F70726F6A2E73726563EE
S11300000C9434000C9451000C9451000C94510045
S11300100C9451000C9451000C9451000C94510018
S11300200C9451000C9451000C9451000C94510008
S11300300C9451000C9451000C9451000C945100F8
S11300400C9451000C9451000C9451000C945100E8
S11300500C9451000C9451000C9451000C945100D8
S11300600C9451000C94510011241FBECFEFD8E022
S1130070DEBFCDBF11E0A0E0B1E0EEEDF4E002C0E0
S113008005900D92A032B107D9F721E0A0E2B1E0CA
S113009001C01D92A232B207E1F70E944A010C94FA
S11300A06D020C9400008FEF8AB98BB92FEF89EFA2
S11300B090E0215080409040E1F700C0000093E8B8
S11300C09BB983E08BB9EFE3FCE93197F1F700C00A
S11300D000009BB98BB9EFE9FFE03197F1F700C05D
S11300E000009BB98BB98FE99FE00197F1F700C03D
S11300F0000082E88BB982E08BB9EFE9FFE0319729
S1130100F1F700C000000895982F92959F70292F51
S113011020682BB99BB98F70982F90689BB98BB9C5
S11301208FE193E00197F1F700C000008FE193E0C5
S11301300197F1F700C00000089580932001109208
S113014021010E94530088E20E9484008CE00E94F6
S1130150840086E00E94840080E80E948400089560
S1130160982F92959F70292F206A2BB990629BB982
S11301708F70982F906A9BB980628BB98FE193E05E
S11301800197F1F700C000008FE193E00197F1F7C8
S113019000C000000895611104C080580E948400CA
S11301A006C080540E94840081E08093210185ED83
S11301B08A95F1F70000089581E00E9484008FE39E
S11301C09FE10197F1F700C0000082E00E948400E3
S11301D08FE39FE10197F1F700C0000008950E94AA
S11301E0B00008950F931F93CF938C01C0E003C018
S11301F00E94B000CF5FF801EC0FF11D80818823CD
S113020021F090912001C91798F38C2F90E0C091B0
S113021020012C2F30E021503109281739078CF4A4
S11302208091210181110DC061E00E94CB0003C0C7
S11302300E94B000CF5FF801EC0FF11D80818111A5
S1130240F7CFCF911F910F91089580E480937C00A4
S113025087E880937A0010927B000895ECE7F0E041
S11302609081892B8083EAE7F0E080818064808339
S113027080917A0084FFFCCFEAE7F0E0808180611E
S11302808083209178008091790090E0982F8827CE
S1130290822B0895CF93DF93CDB7DEB7A0970FB627
S11302A0F894DEBF0FBECDBF80E10E949D000E9486
S11302B025018AB180648AB983E884BD85B58560E7
S11302C085BD80E1E0E0F1E0DE01119601900D9240
S11302D08A95E1F780E1E0E1F1E0DE0151960190D9
S11302E00D928A95E1F780E00E942E017C019C0129
S11302F0A4E6B0E00E9415022FEF33E040E050E0A6
S11303000E94F301022F10E02FEF209FC001219FD4
S1130310900D112464E670E00E94DF01862F6623AD
S113032011F08FEF860F87BD88E090E009C0E1E00F
S1130330F0E0EC0FFD1FE80FF91F30E23083019667
S113034080319105A4F38BE090E009C0E1E1F0E095
S1130350EC0FFD1FE80FF91F20E2208301968D307A
S11303609105A4F34AE0BE01675F7F4FC7010E9475
S113037038024AE0BE01645E7F4FC8010E94380221
S113038060E080E00E94CB00CE0101960E94F20062
S113039061E080E00E94CB00CE0141960E94F20011
S11303A085E20E94EF002FEF8BE49DE12150804015
S11303B09040E1F700C000000E94DC0094CF97FB5E
S11303C0072E16F4009407D077FD09D00E9424026A
S11303D007FC05D03EF4909581959F4F0895709544
S11303E061957F4F0895A1E21A2EAA1BBB1BFD0144
S11303F00DC0AA1FBB1FEE1FFF1FA217B307E40700
S1130400F50720F0A21BB30BE40BF50B661F771F57
S1130410881F991F1A9469F7609570958095909537
S11304209B01AC01BD01CF010895A29FB001B39F10
S1130430C001A39F700D811D1124911DB29F700DE9
S1130440811D1124911D0895AA1BBB1B51E107C0F6
S1130450AA1FBB1FA617B70710F0A61BB70B881F50
S1130460991F5A95A9F780959095BC01CD010895DF
S1130470BB274A3031F4992322F4BDE2909581954B
S11304809F4F0C944402BB27FB015527AA27880FD2
S1130490991FAA1FA41710F0A41B83955051B9F7F4
S11304A0A05DAA3308F0A95DA193009779F7B11173
S11304B0B1931192CB010C945D02DC01FC01672F16
S11304C071917723E1F7329704C07C916D93708327
S11104D06291AE17BF07C8F30895F894FFCFEA
S11304DE4144432076616C3A2020202020202000C5
S11304EE44757479206379636C653A20202020006A
S9030000FC
